{
  "_format": "hh-sol-artifact-1",
  "contractName": "OddEvenGame",
  "sourceName": "contracts/OddEvenGame.sol",
  "abi": [
    {
      "inputs": [
        {
          "internalType": "uint256",
          "name": "_gameCost",
          "type": "uint256"
        },
        {
          "internalType": "uint256",
          "name": "_maxWaitingTime",
          "type": "uint256"
        },
        {
          "internalType": "uint256",
          "name": "_judgeRewardPercentage",
          "type": "uint256"
        }
      ],
      "stateMutability": "nonpayable",
      "type": "constructor"
    },
    {
      "inputs": [],
      "name": "gameCost",
      "outputs": [
        {
          "internalType": "uint256",
          "name": "",
          "type": "uint256"
        }
      ],
      "stateMutability": "view",
      "type": "function"
    },
    {
      "inputs": [
        {
          "internalType": "uint256",
          "name": "",
          "type": "uint256"
        }
      ],
      "name": "games",
      "outputs": [
        {
          "internalType": "enum OddEvenGame.GameStatus",
          "name": "status",
          "type": "uint8"
        },
        {
          "internalType": "address payable",
          "name": "playerOdd",
          "type": "address"
        },
        {
          "internalType": "address payable",
          "name": "playerEven",
          "type": "address"
        },
        {
          "internalType": "address payable",
          "name": "judge",
          "type": "address"
        },
        {
          "internalType": "uint256",
          "name": "cost",
          "type": "uint256"
        },
        {
          "internalType": "string",
          "name": "magicWordOdd",
          "type": "string"
        },
        {
          "internalType": "bytes32",
          "name": "hashOdd",
          "type": "bytes32"
        },
        {
          "internalType": "string",
          "name": "magicWordEven",
          "type": "string"
        },
        {
          "internalType": "uint256",
          "name": "totalLength",
          "type": "uint256"
        },
        {
          "internalType": "uint256",
          "name": "startTime",
          "type": "uint256"
        },
        {
          "internalType": "uint256",
          "name": "playerEvenJoinedTime",
          "type": "uint256"
        },
        {
          "internalType": "uint256",
          "name": "endTime",
          "type": "uint256"
        }
      ],
      "stateMutability": "view",
      "type": "function"
    },
    {
      "inputs": [],
      "name": "getGames",
      "outputs": [
        {
          "components": [
            {
              "internalType": "enum OddEvenGame.GameStatus",
              "name": "status",
              "type": "uint8"
            },
            {
              "internalType": "address payable",
              "name": "playerOdd",
              "type": "address"
            },
            {
              "internalType": "address payable",
              "name": "playerEven",
              "type": "address"
            },
            {
              "internalType": "address payable",
              "name": "judge",
              "type": "address"
            },
            {
              "internalType": "uint256",
              "name": "cost",
              "type": "uint256"
            },
            {
              "internalType": "string",
              "name": "magicWordOdd",
              "type": "string"
            },
            {
              "internalType": "bytes32",
              "name": "hashOdd",
              "type": "bytes32"
            },
            {
              "internalType": "string",
              "name": "magicWordEven",
              "type": "string"
            },
            {
              "internalType": "uint256",
              "name": "totalLength",
              "type": "uint256"
            },
            {
              "internalType": "uint256",
              "name": "startTime",
              "type": "uint256"
            },
            {
              "internalType": "uint256",
              "name": "playerEvenJoinedTime",
              "type": "uint256"
            },
            {
              "internalType": "uint256",
              "name": "endTime",
              "type": "uint256"
            }
          ],
          "internalType": "struct OddEvenGame.Game[]",
          "name": "",
          "type": "tuple[]"
        }
      ],
      "stateMutability": "view",
      "type": "function"
    },
    {
      "inputs": [],
      "name": "getLastGameIndex",
      "outputs": [
        {
          "internalType": "uint256",
          "name": "",
          "type": "uint256"
        }
      ],
      "stateMutability": "view",
      "type": "function"
    },
    {
      "inputs": [
        {
          "internalType": "string",
          "name": "_magicWord",
          "type": "string"
        }
      ],
      "name": "joinGame",
      "outputs": [],
      "stateMutability": "payable",
      "type": "function"
    },
    {
      "inputs": [],
      "name": "judge",
      "outputs": [],
      "stateMutability": "nonpayable",
      "type": "function"
    },
    {
      "inputs": [],
      "name": "judgeRewardPercentage",
      "outputs": [
        {
          "internalType": "uint256",
          "name": "",
          "type": "uint256"
        }
      ],
      "stateMutability": "view",
      "type": "function"
    },
    {
      "inputs": [],
      "name": "maxWaitingTime",
      "outputs": [
        {
          "internalType": "uint256",
          "name": "",
          "type": "uint256"
        }
      ],
      "stateMutability": "view",
      "type": "function"
    },
    {
      "inputs": [],
      "name": "owner",
      "outputs": [
        {
          "internalType": "address",
          "name": "",
          "type": "address"
        }
      ],
      "stateMutability": "view",
      "type": "function"
    },
    {
      "inputs": [
        {
          "internalType": "string",
          "name": "_magicWord",
          "type": "string"
        }
      ],
      "name": "reveal",
      "outputs": [],
      "stateMutability": "nonpayable",
      "type": "function"
    },
    {
      "inputs": [
        {
          "internalType": "uint256",
          "name": "_gameCost",
          "type": "uint256"
        }
      ],
      "name": "setGameCost",
      "outputs": [],
      "stateMutability": "nonpayable",
      "type": "function"
    },
    {
      "inputs": [
        {
          "internalType": "uint256",
          "name": "_judgeRewardPercentage",
          "type": "uint256"
        }
      ],
      "name": "setJudgeRewardPercentage",
      "outputs": [],
      "stateMutability": "nonpayable",
      "type": "function"
    },
    {
      "inputs": [
        {
          "internalType": "uint256",
          "name": "_maxWaitingTime",
          "type": "uint256"
        }
      ],
      "name": "setmaxWaitingTime",
      "outputs": [],
      "stateMutability": "nonpayable",
      "type": "function"
    },
    {
      "inputs": [
        {
          "internalType": "bytes32",
          "name": "_hash",
          "type": "bytes32"
        }
      ],
      "name": "startGame",
      "outputs": [],
      "stateMutability": "payable",
      "type": "function"
    }
  ],
  "bytecode": "0x60806040523480156200001157600080fd5b5060405162003b7a38038062003b7a8339818101604052810190620000379190620000d6565b33600160006101000a81548173ffffffffffffffffffffffffffffffffffffffff021916908373ffffffffffffffffffffffffffffffffffffffff16021790555082600381905550816002819055508060048190555050505062000132565b600080fd5b6000819050919050565b620000b0816200009b565b8114620000bc57600080fd5b50565b600081519050620000d081620000a5565b92915050565b600080600060608486031215620000f257620000f162000096565b5b60006200010286828701620000bf565b93505060206200011586828701620000bf565b92505060406200012886828701620000bf565b9150509250925092565b613a3880620001426000396000f3fe6080604052600436106100dd5760003560e01c80637042f94c1161007f5780638e7a2fa8116100595780638e7a2fa814610275578063c04c5947146102a0578063cab896dc146102cb578063e7b856f1146102f6576100dd565b80637042f94c146101f65780637f17b79d146102215780638da5cb5b1461024a576100dd565b80634c261247116100bb5780634c2612471461016f5780634c92fb1214610198578063573255f4146101b457806367de552c146101cb576100dd565b8063117a5b90146100e25780633d536a2e1461012a57806343fe5d0214610146575b600080fd5b3480156100ee57600080fd5b50610109600480360381019061010491906128b8565b61031f565b6040516101219c9b9a99989796959493929190612a5e565b60405180910390f35b610144600480360381019061013f9190612c5b565b61050c565b005b34801561015257600080fd5b5061016d600480360381019061016891906128b8565b610a40565b005b34801561017b57600080fd5b5061019660048036038101906101919190612d04565b610ada565b005b6101b260048036038101906101ad9190612d7d565b611319565b005b3480156101c057600080fd5b506101c9611973565b005b3480156101d757600080fd5b506101e06120f7565b6040516101ed9190612daa565b60405180910390f35b34801561020257600080fd5b5061020b6120fd565b6040516102189190612daa565b60405180910390f35b34801561022d57600080fd5b50610248600480360381019061024391906128b8565b61212d565b005b34801561025657600080fd5b5061025f6121c7565b60405161026c9190612de6565b60405180910390f35b34801561028157600080fd5b5061028a6121ed565b6040516102979190612daa565b60405180910390f35b3480156102ac57600080fd5b506102b56121f3565b6040516102c29190613054565b60405180910390f35b3480156102d757600080fd5b506102e06124f0565b6040516102ed9190612daa565b60405180910390f35b34801561030257600080fd5b5061031d600480360381019061031891906128b8565b6124f6565b005b6000818154811061032f57600080fd5b90600052602060002090600b02016000915090508060000160009054906101000a900460ff16908060000160019054906101000a900473ffffffffffffffffffffffffffffffffffffffff16908060010160009054906101000a900473ffffffffffffffffffffffffffffffffffffffff16908060020160009054906101000a900473ffffffffffffffffffffffffffffffffffffffff16908060030154908060040180546103dd906130a5565b80601f0160208091040260200160405190810160405280929190818152602001828054610409906130a5565b80156104565780601f1061042b57610100808354040283529160200191610456565b820191906000526020600020905b81548152906001019060200180831161043957829003601f168201915b505050505090806005015490806006018054610471906130a5565b80601f016020809104026020016040519081016040528092919081815260200182805461049d906130a5565b80156104ea5780601f106104bf576101008083540402835291602001916104ea565b820191906000526020600020905b8154815290600101906020018083116104cd57829003601f168201915b50505050509080600701549080600801549080600901549080600a015490508c565b6000808054905011610553576040517f08c379a000000000000000000000000000000000000000000000000000000000815260040161054a90613123565b60405180910390fd5b600061055d6120fd565b905060008110156105a3576040517f08c379a000000000000000000000000000000000000000000000000000000000815260040161059a9061318f565b60405180910390fd5b60008082815481106105b8576105b76131af565b5b90600052602060002090600b0201604051806101800160405290816000820160009054906101000a900460ff1660038111156105f7576105f66128e5565b5b6003811115610609576106086128e5565b5b81526020016000820160019054906101000a900473ffffffffffffffffffffffffffffffffffffffff1673ffffffffffffffffffffffffffffffffffffffff1673ffffffffffffffffffffffffffffffffffffffff1681526020016001820160009054906101000a900473ffffffffffffffffffffffffffffffffffffffff1673ffffffffffffffffffffffffffffffffffffffff1673ffffffffffffffffffffffffffffffffffffffff1681526020016002820160009054906101000a900473ffffffffffffffffffffffffffffffffffffffff1673ffffffffffffffffffffffffffffffffffffffff1673ffffffffffffffffffffffffffffffffffffffff16815260200160038201548152602001600482018054610729906130a5565b80601f0160208091040260200160405190810160405280929190818152602001828054610755906130a5565b80156107a25780601f10610777576101008083540402835291602001916107a2565b820191906000526020600020905b81548152906001019060200180831161078557829003601f168201915b50505050508152602001600582015481526020016006820180546107c5906130a5565b80601f01602080910402602001604051908101604052809291908181526020018280546107f1906130a5565b801561083e5780601f106108135761010080835404028352916020019161083e565b820191906000526020600020905b81548152906001019060200180831161082157829003601f168201915b50505050508152602001600782015481526020016008820154815260200160098201548152602001600a82015481525050905060016003811115610885576108846128e5565b5b8160000151600381111561089c5761089b6128e5565b5b146108dc576040517f08c379a00000000000000000000000000000000000000000000000000000000081526004016108d39061322a565b60405180910390fd5b6000835111610920576040517f08c379a000000000000000000000000000000000000000000000000000000000815260040161091790613296565b60405180910390fd5b60008061092b6120fd565b8154811061093c5761093b6131af565b5b90600052602060002090600b0201905080600301543414610992576040517f08c379a000000000000000000000000000000000000000000000000000000000815260040161098990613302565b60405180910390fd5b60028160000160006101000a81548160ff021916908360038111156109ba576109b96128e5565b5b0217905550338160010160006101000a81548173ffffffffffffffffffffffffffffffffffffffff021916908373ffffffffffffffffffffffffffffffffffffffff16021790555083816006019080519060200190610a1a929190612745565b5042816009018190555060025442610a329190613351565b81600a018190555050505050565b600160009054906101000a900473ffffffffffffffffffffffffffffffffffffffff1673ffffffffffffffffffffffffffffffffffffffff163373ffffffffffffffffffffffffffffffffffffffff1614610ad0576040517f08c379a0000000000000000000000000000000000000000000000000000000008152600401610ac790613419565b60405180910390fd5b8060028190555050565b6000808054905011610b21576040517f08c379a0000000000000000000000000000000000000000000000000000000008152600401610b1890613123565b60405180910390fd5b6000610b2b6120fd565b90506000811015610b71576040517f08c379a0000000000000000000000000000000000000000000000000000000008152600401610b689061318f565b60405180910390fd5b6000808281548110610b8657610b856131af565b5b90600052602060002090600b0201604051806101800160405290816000820160009054906101000a900460ff166003811115610bc557610bc46128e5565b5b6003811115610bd757610bd66128e5565b5b81526020016000820160019054906101000a900473ffffffffffffffffffffffffffffffffffffffff1673ffffffffffffffffffffffffffffffffffffffff1673ffffffffffffffffffffffffffffffffffffffff1681526020016001820160009054906101000a900473ffffffffffffffffffffffffffffffffffffffff1673ffffffffffffffffffffffffffffffffffffffff1673ffffffffffffffffffffffffffffffffffffffff1681526020016002820160009054906101000a900473ffffffffffffffffffffffffffffffffffffffff1673ffffffffffffffffffffffffffffffffffffffff1673ffffffffffffffffffffffffffffffffffffffff16815260200160038201548152602001600482018054610cf7906130a5565b80601f0160208091040260200160405190810160405280929190818152602001828054610d23906130a5565b8015610d705780601f10610d4557610100808354040283529160200191610d70565b820191906000526020600020905b815481529060010190602001808311610d5357829003601f168201915b5050505050815260200160058201548152602001600682018054610d93906130a5565b80601f0160208091040260200160405190810160405280929190818152602001828054610dbf906130a5565b8015610e0c5780601f10610de157610100808354040283529160200191610e0c565b820191906000526020600020905b815481529060010190602001808311610def57829003601f168201915b50505050508152602001600782015481526020016008820154815260200160098201548152602001600a82015481525050905060026003811115610e5357610e526128e5565b5b81600001516003811115610e6a57610e696128e5565b5b14610eaa576040517f08c379a0000000000000000000000000000000000000000000000000000000008152600401610ea190613485565b60405180910390fd5b806020015173ffffffffffffffffffffffffffffffffffffffff163373ffffffffffffffffffffffffffffffffffffffff1614610f1c576040517f08c379a0000000000000000000000000000000000000000000000000000000008152600401610f13906134f1565b60405180910390fd5b600080610f276120fd565b81548110610f3857610f376131af565b5b90600052602060002090600b0201905080600501548585604051602001610f60929190613541565b6040516020818303038152906040528051906020012014610fb6576040517f08c379a0000000000000000000000000000000000000000000000000000000008152600401610fad90613296565b60405180910390fd5b8484826004019190610fc99291906127cb565b506000611061826006018054610fde906130a5565b80601f016020809104026020016040519081016040528092919081815260200182805461100a906130a5565b80156110575780601f1061102c57610100808354040283529160200191611057565b820191906000526020600020905b81548152906001019060200180831161103a57829003601f168201915b5050505050612590565b6110f6836004018054611073906130a5565b80601f016020809104026020016040519081016040528092919081815260200182805461109f906130a5565b80156110ec5780601f106110c1576101008083540402835291602001916110ec565b820191906000526020600020905b8154815290600101906020018083116110cf57829003601f168201915b5050505050612590565b6111009190613351565b905060006002826111119190613589565b14156111fb5760008260010160009054906101000a900473ffffffffffffffffffffffffffffffffffffffff1673ffffffffffffffffffffffffffffffffffffffff16600260035461116391906135ba565b60405161116f90613645565b60006040518083038185875af1925050503d80600081146111ac576040519150601f19603f3d011682016040523d82523d6000602084013e6111b1565b606091505b50509050806111f5576040517f08c379a00000000000000000000000000000000000000000000000000000000081526004016111ec906136cc565b60405180910390fd5b506112db565b60008260000160019054906101000a900473ffffffffffffffffffffffffffffffffffffffff1673ffffffffffffffffffffffffffffffffffffffff16600260035461124791906135ba565b60405161125390613645565b60006040518083038185875af1925050503d8060008114611290576040519150601f19603f3d011682016040523d82523d6000602084013e611295565b606091505b50509050806112d9576040517f08c379a00000000000000000000000000000000000000000000000000000000081526004016112d09061375e565b60405180910390fd5b505b80826007018190555060038260000160006101000a81548160ff0219169083600381111561130c5761130b6128e5565b5b0217905550505050505050565b600080805490501115611667576000806113316120fd565b81548110611342576113416131af565b5b90600052602060002090600b0201604051806101800160405290816000820160009054906101000a900460ff166003811115611381576113806128e5565b5b6003811115611393576113926128e5565b5b81526020016000820160019054906101000a900473ffffffffffffffffffffffffffffffffffffffff1673ffffffffffffffffffffffffffffffffffffffff1673ffffffffffffffffffffffffffffffffffffffff1681526020016001820160009054906101000a900473ffffffffffffffffffffffffffffffffffffffff1673ffffffffffffffffffffffffffffffffffffffff1673ffffffffffffffffffffffffffffffffffffffff1681526020016002820160009054906101000a900473ffffffffffffffffffffffffffffffffffffffff1673ffffffffffffffffffffffffffffffffffffffff1673ffffffffffffffffffffffffffffffffffffffff168152602001600382015481526020016004820180546114b3906130a5565b80601f01602080910402602001604051908101604052809291908181526020018280546114df906130a5565b801561152c5780601f106115015761010080835404028352916020019161152c565b820191906000526020600020905b81548152906001019060200180831161150f57829003601f168201915b505050505081526020016005820154815260200160068201805461154f906130a5565b80601f016020809104026020016040519081016040528092919081815260200182805461157b906130a5565b80156115c85780601f1061159d576101008083540402835291602001916115c8565b820191906000526020600020905b8154815290600101906020018083116115ab57829003601f168201915b50505050508152602001600782015481526020016008820154815260200160098201548152602001600a82015481525050905060038081111561160e5761160d6128e5565b5b81600001516003811115611625576116246128e5565b5b14611665576040517f08c379a000000000000000000000000000000000000000000000000000000000815260040161165c906137ca565b60405180910390fd5b505b60035434146116ab576040517f08c379a00000000000000000000000000000000000000000000000000000000081526004016116a290613302565b60405180910390fd5b6000602060ff16116116f2576040517f08c379a00000000000000000000000000000000000000000000000000000000081526004016116e990613836565b60405180910390fd5b600060405180610180016040528060016003811115611714576117136128e5565b5b81526020013373ffffffffffffffffffffffffffffffffffffffff168152602001600073ffffffffffffffffffffffffffffffffffffffff168152602001600073ffffffffffffffffffffffffffffffffffffffff168152602001600354815260200160405180602001604052806000815250815260200183815260200160405180602001604052806000815250815260200160008152602001428152602001600081526020016000815250905060008190806001815401808255809150506001900390600052602060002090600b020160009091909190915060008201518160000160006101000a81548160ff02191690836003811115611819576118186128e5565b5b021790555060208201518160000160016101000a81548173ffffffffffffffffffffffffffffffffffffffff021916908373ffffffffffffffffffffffffffffffffffffffff16021790555060408201518160010160006101000a81548173ffffffffffffffffffffffffffffffffffffffff021916908373ffffffffffffffffffffffffffffffffffffffff16021790555060608201518160020160006101000a81548173ffffffffffffffffffffffffffffffffffffffff021916908373ffffffffffffffffffffffffffffffffffffffff1602179055506080820151816003015560a0820151816004019080519060200190611919929190612745565b5060c0820151816005015560e0820151816006019080519060200190611940929190612745565b5061010082015181600701556101208201518160080155610140820151816009015561016082015181600a015550505050565b60008080549050116119ba576040517f08c379a00000000000000000000000000000000000000000000000000000000081526004016119b190613123565b60405180910390fd5b60006119c46120fd565b90506000811015611a0a576040517f08c379a0000000000000000000000000000000000000000000000000000000008152600401611a019061318f565b60405180910390fd5b6000808281548110611a1f57611a1e6131af565b5b90600052602060002090600b0201604051806101800160405290816000820160009054906101000a900460ff166003811115611a5e57611a5d6128e5565b5b6003811115611a7057611a6f6128e5565b5b81526020016000820160019054906101000a900473ffffffffffffffffffffffffffffffffffffffff1673ffffffffffffffffffffffffffffffffffffffff1673ffffffffffffffffffffffffffffffffffffffff1681526020016001820160009054906101000a900473ffffffffffffffffffffffffffffffffffffffff1673ffffffffffffffffffffffffffffffffffffffff1673ffffffffffffffffffffffffffffffffffffffff1681526020016002820160009054906101000a900473ffffffffffffffffffffffffffffffffffffffff1673ffffffffffffffffffffffffffffffffffffffff1673ffffffffffffffffffffffffffffffffffffffff16815260200160038201548152602001600482018054611b90906130a5565b80601f0160208091040260200160405190810160405280929190818152602001828054611bbc906130a5565b8015611c095780601f10611bde57610100808354040283529160200191611c09565b820191906000526020600020905b815481529060010190602001808311611bec57829003601f168201915b5050505050815260200160058201548152602001600682018054611c2c906130a5565b80601f0160208091040260200160405190810160405280929190818152602001828054611c58906130a5565b8015611ca55780601f10611c7a57610100808354040283529160200191611ca5565b820191906000526020600020905b815481529060010190602001808311611c8857829003601f168201915b50505050508152602001600782015481526020016008820154815260200160098201548152602001600a82015481525050905060026003811115611cec57611ceb6128e5565b5b81600001516003811115611d0357611d026128e5565b5b14611d43576040517f08c379a0000000000000000000000000000000000000000000000000000000008152600401611d3a90613485565b60405180910390fd5b4281610160015110611d8a576040517f08c379a0000000000000000000000000000000000000000000000000000000008152600401611d81906138c8565b60405180910390fd5b600080611d956120fd565b81548110611da657611da56131af565b5b90600052602060002090600b02019050338160020160006101000a81548173ffffffffffffffffffffffffffffffffffffffff021916908373ffffffffffffffffffffffffffffffffffffffff160217905550600060028260030154611e0c91906135ba565b90508160010160009054906101000a900473ffffffffffffffffffffffffffffffffffffffff1673ffffffffffffffffffffffffffffffffffffffff163373ffffffffffffffffffffffffffffffffffffffff161415611f185760003373ffffffffffffffffffffffffffffffffffffffff1682604051611e8c90613645565b60006040518083038185875af1925050503d8060008114611ec9576040519150601f19603f3d011682016040523d82523d6000602084013e611ece565b606091505b5050905080611f12576040517f08c379a0000000000000000000000000000000000000000000000000000000008152600401611f09906136cc565b60405180910390fd5b506120c4565b6000633b9aca0060045483611f2d91906135ba565b611f3791906138e8565b905060003373ffffffffffffffffffffffffffffffffffffffff1682604051611f5f90613645565b60006040518083038185875af1925050503d8060008114611f9c576040519150601f19603f3d011682016040523d82523d6000602084013e611fa1565b606091505b5050905080611fe5576040517f08c379a0000000000000000000000000000000000000000000000000000000008152600401611fdc90613965565b60405180910390fd5b60008460010160009054906101000a900473ffffffffffffffffffffffffffffffffffffffff1673ffffffffffffffffffffffffffffffffffffffff16838561202e9190613985565b60405161203a90613645565b60006040518083038185875af1925050503d8060008114612077576040519150601f19603f3d011682016040523d82523d6000602084013e61207c565b606091505b50509050806120c0576040517f08c379a00000000000000000000000000000000000000000000000000000000081526004016120b7906136cc565b60405180910390fd5b5050505b60038260000160006101000a81548160ff021916908360038111156120ec576120eb6128e5565b5b021790555050505050565b60045481565b6000806000805490501415612115576000905061212a565b60016000805490506121279190613985565b90505b90565b600160009054906101000a900473ffffffffffffffffffffffffffffffffffffffff1673ffffffffffffffffffffffffffffffffffffffff163373ffffffffffffffffffffffffffffffffffffffff16146121bd576040517f08c379a00000000000000000000000000000000000000000000000000000000081526004016121b490613419565b60405180910390fd5b8060038190555050565b600160009054906101000a900473ffffffffffffffffffffffffffffffffffffffff1681565b60025481565b60606000805480602002602001604051908101604052809291908181526020016000905b828210156124e757838290600052602060002090600b0201604051806101800160405290816000820160009054906101000a900460ff1660038111156122605761225f6128e5565b5b6003811115612272576122716128e5565b5b81526020016000820160019054906101000a900473ffffffffffffffffffffffffffffffffffffffff1673ffffffffffffffffffffffffffffffffffffffff1673ffffffffffffffffffffffffffffffffffffffff1681526020016001820160009054906101000a900473ffffffffffffffffffffffffffffffffffffffff1673ffffffffffffffffffffffffffffffffffffffff1673ffffffffffffffffffffffffffffffffffffffff1681526020016002820160009054906101000a900473ffffffffffffffffffffffffffffffffffffffff1673ffffffffffffffffffffffffffffffffffffffff1673ffffffffffffffffffffffffffffffffffffffff16815260200160038201548152602001600482018054612392906130a5565b80601f01602080910402602001604051908101604052809291908181526020018280546123be906130a5565b801561240b5780601f106123e05761010080835404028352916020019161240b565b820191906000526020600020905b8154815290600101906020018083116123ee57829003601f168201915b505050505081526020016005820154815260200160068201805461242e906130a5565b80601f016020809104026020016040519081016040528092919081815260200182805461245a906130a5565b80156124a75780601f1061247c576101008083540402835291602001916124a7565b820191906000526020600020905b81548152906001019060200180831161248a57829003601f168201915b50505050508152602001600782015481526020016008820154815260200160098201548152602001600a8201548152505081526020019060010190612217565b50505050905090565b60035481565b600160009054906101000a900473ffffffffffffffffffffffffffffffffffffffff1673ffffffffffffffffffffffffffffffffffffffff163373ffffffffffffffffffffffffffffffffffffffff1614612586576040517f08c379a000000000000000000000000000000000000000000000000000000000815260040161257d90613419565b60405180910390fd5b8060048190555050565b60008060008084519050600092505b8082101561273a5760008583815181106125bc576125bb6131af565b5b602001015160f81c60f81b9050608060f81b817effffffffffffffffffffffffffffffffffffffffffffffffffffffffffffff1916101561260b576001836126049190613351565b9250612726565b60e060f81b817effffffffffffffffffffffffffffffffffffffffffffffffffffffffffffff1916101561264d576002836126469190613351565b9250612725565b60f060f81b817effffffffffffffffffffffffffffffffffffffffffffffffffffffffffffff1916101561268f576003836126889190613351565b9250612724565b60f8801b817effffffffffffffffffffffffffffffffffffffffffffffffffffffffffffff191610156126d0576004836126c99190613351565b9250612723565b60fc60f81b817effffffffffffffffffffffffffffffffffffffffffffffffffffffffffffff191610156127125760058361270b9190613351565b9250612722565b60068361271f9190613351565b92505b5b5b5b5b508280612732906139b9565b93505061259f565b829350505050919050565b828054612751906130a5565b90600052602060002090601f01602090048101928261277357600085556127ba565b82601f1061278c57805160ff19168380011785556127ba565b828001600101855582156127ba579182015b828111156127b957825182559160200191906001019061279e565b5b5090506127c79190612851565b5090565b8280546127d7906130a5565b90600052602060002090601f0160209004810192826127f95760008555612840565b82601f1061281257803560ff1916838001178555612840565b82800160010185558215612840579182015b8281111561283f578235825591602001919060010190612824565b5b50905061284d9190612851565b5090565b5b8082111561286a576000816000905550600101612852565b5090565b6000604051905090565b600080fd5b600080fd5b6000819050919050565b61289581612882565b81146128a057600080fd5b50565b6000813590506128b28161288c565b92915050565b6000602082840312156128ce576128cd612878565b5b60006128dc848285016128a3565b91505092915050565b7f4e487b7100000000000000000000000000000000000000000000000000000000600052602160045260246000fd5b60048110612925576129246128e5565b5b50565b600081905061293682612914565b919050565b600061294682612928565b9050919050565b6129568161293b565b82525050565b600073ffffffffffffffffffffffffffffffffffffffff82169050919050565b60006129878261295c565b9050919050565b6129978161297c565b82525050565b6129a681612882565b82525050565b600081519050919050565b600082825260208201905092915050565b60005b838110156129e65780820151818401526020810190506129cb565b838111156129f5576000848401525b50505050565b6000601f19601f8301169050919050565b6000612a17826129ac565b612a2181856129b7565b9350612a318185602086016129c8565b612a3a816129fb565b840191505092915050565b6000819050919050565b612a5881612a45565b82525050565b600061018082019050612a74600083018f61294d565b612a81602083018e61298e565b612a8e604083018d61298e565b612a9b606083018c61298e565b612aa8608083018b61299d565b81810360a0830152612aba818a612a0c565b9050612ac960c0830189612a4f565b81810360e0830152612adb8188612a0c565b9050612aeb61010083018761299d565b612af961012083018661299d565b612b0761014083018561299d565b612b1561016083018461299d565b9d9c50505050505050505050505050565b600080fd5b600080fd5b7f4e487b7100000000000000000000000000000000000000000000000000000000600052604160045260246000fd5b612b68826129fb565b810181811067ffffffffffffffff82111715612b8757612b86612b30565b5b80604052505050565b6000612b9a61286e565b9050612ba68282612b5f565b919050565b600067ffffffffffffffff821115612bc657612bc5612b30565b5b612bcf826129fb565b9050602081019050919050565b82818337600083830152505050565b6000612bfe612bf984612bab565b612b90565b905082815260208101848484011115612c1a57612c19612b2b565b5b612c25848285612bdc565b509392505050565b600082601f830112612c4257612c41612b26565b5b8135612c52848260208601612beb565b91505092915050565b600060208284031215612c7157612c70612878565b5b600082013567ffffffffffffffff811115612c8f57612c8e61287d565b5b612c9b84828501612c2d565b91505092915050565b600080fd5b600080fd5b60008083601f840112612cc457612cc3612b26565b5b8235905067ffffffffffffffff811115612ce157612ce0612ca4565b5b602083019150836001820283011115612cfd57612cfc612ca9565b5b9250929050565b60008060208385031215612d1b57612d1a612878565b5b600083013567ffffffffffffffff811115612d3957612d3861287d565b5b612d4585828601612cae565b92509250509250929050565b612d5a81612a45565b8114612d6557600080fd5b50565b600081359050612d7781612d51565b92915050565b600060208284031215612d9357612d92612878565b5b6000612da184828501612d68565b91505092915050565b6000602082019050612dbf600083018461299d565b92915050565b6000612dd08261295c565b9050919050565b612de081612dc5565b82525050565b6000602082019050612dfb6000830184612dd7565b92915050565b600081519050919050565b600082825260208201905092915050565b6000819050602082019050919050565b612e368161293b565b82525050565b612e458161297c565b82525050565b612e5481612882565b82525050565b600082825260208201905092915050565b6000612e76826129ac565b612e808185612e5a565b9350612e908185602086016129c8565b612e99816129fb565b840191505092915050565b612ead81612a45565b82525050565b600061018083016000830151612ecc6000860182612e2d565b506020830151612edf6020860182612e3c565b506040830151612ef26040860182612e3c565b506060830151612f056060860182612e3c565b506080830151612f186080860182612e4b565b5060a083015184820360a0860152612f308282612e6b565b91505060c0830151612f4560c0860182612ea4565b5060e083015184820360e0860152612f5d8282612e6b565b915050610100830151612f74610100860182612e4b565b50610120830151612f89610120860182612e4b565b50610140830151612f9e610140860182612e4b565b50610160830151612fb3610160860182612e4b565b508091505092915050565b6000612fca8383612eb3565b905092915050565b6000602082019050919050565b6000612fea82612e01565b612ff48185612e0c565b93508360208202850161300685612e1d565b8060005b8581101561304257848403895281516130238582612fbe565b945061302e83612fd2565b925060208a0199505060018101905061300a565b50829750879550505050505092915050565b6000602082019050818103600083015261306e8184612fdf565b905092915050565b7f4e487b7100000000000000000000000000000000000000000000000000000000600052602260045260246000fd5b600060028204905060018216806130bd57607f821691505b602082108114156130d1576130d0613076565b5b50919050565b7f4e6f2067616d657320746f206a6f696e00000000000000000000000000000000600082015250565b600061310d6010836129b7565b9150613118826130d7565b602082019050919050565b6000602082019050818103600083015261313c81613100565b9050919050565b7f5468657265206973206e6f206f6e676f696e672067616d650000000000000000600082015250565b60006131796018836129b7565b915061318482613143565b602082019050919050565b600060208201905081810360008301526131a88161316c565b9050919050565b7f4e487b7100000000000000000000000000000000000000000000000000000000600052603260045260246000fd5b7f4e6f2067616d65732063616e206265206a6f696e656400000000000000000000600082015250565b60006132146016836129b7565b915061321f826131de565b602082019050919050565b6000602082019050818103600083015261324381613207565b9050919050565b7f496e76616c6964206d6167696320776f72640000000000000000000000000000600082015250565b60006132806012836129b7565b915061328b8261324a565b602082019050919050565b600060208201905081810360008301526132af81613273565b9050919050565b7f596f75206d7573742070617920666f72207468652067616d6500000000000000600082015250565b60006132ec6019836129b7565b91506132f7826132b6565b602082019050919050565b6000602082019050818103600083015261331b816132df565b9050919050565b7f4e487b7100000000000000000000000000000000000000000000000000000000600052601160045260246000fd5b600061335c82612882565b915061336783612882565b9250827fffffffffffffffffffffffffffffffffffffffffffffffffffffffffffffffff0382111561339c5761339b613322565b5b828201905092915050565b7f4f6e6c7920746865206f776e65722063616e2063616c6c20746869732066756e60008201527f6374696f6e2e0000000000000000000000000000000000000000000000000000602082015250565b60006134036026836129b7565b915061340e826133a7565b604082019050919050565b60006020820190508181036000830152613432816133f6565b9050919050565b7f4e6f2067616d65732063616e2062652072657665616c65640000000000000000600082015250565b600061346f6018836129b7565b915061347a82613439565b602082019050919050565b6000602082019050818103600083015261349e81613462565b9050919050565b7f4f6e6c7920706c61796572206f64642063616e2072657665616c000000000000600082015250565b60006134db601a836129b7565b91506134e6826134a5565b602082019050919050565b6000602082019050818103600083015261350a816134ce565b9050919050565b600081905092915050565b60006135288385613511565b9350613535838584612bdc565b82840190509392505050565b600061354e82848661351c565b91508190509392505050565b7f4e487b7100000000000000000000000000000000000000000000000000000000600052601260045260246000fd5b600061359482612882565b915061359f83612882565b9250826135af576135ae61355a565b5b828206905092915050565b60006135c582612882565b91506135d083612882565b9250817fffffffffffffffffffffffffffffffffffffffffffffffffffffffffffffffff048311821515161561360957613608613322565b5b828202905092915050565b600081905092915050565b50565b600061362f600083613614565b915061363a8261361f565b600082019050919050565b600061365082613622565b9150819050919050565b7f4661696c656420746f2073656e64206d6f6e657920746f20706c61796572206560008201527f76656e0000000000000000000000000000000000000000000000000000000000602082015250565b60006136b66023836129b7565b91506136c18261365a565b604082019050919050565b600060208201905081810360008301526136e5816136a9565b9050919050565b7f4661696c656420746f2073656e64206d6f6e657920746f20706c61796572206f60008201527f6464000000000000000000000000000000000000000000000000000000000000602082015250565b60006137486022836129b7565b9150613753826136ec565b604082019050919050565b600060208201905081810360008301526137778161373b565b9050919050565b7f546865726520697320616e206f6e676f696e672067616d650000000000000000600082015250565b60006137b46018836129b7565b91506137bf8261377e565b602082019050919050565b600060208201905081810360008301526137e3816137a7565b9050919050565b7f496e76616c696420686173680000000000000000000000000000000000000000600082015250565b6000613820600c836129b7565b915061382b826137ea565b602082019050919050565b6000602082019050818103600083015261384f81613813565b9050919050565b7f47616d6520686173206e6f7420656e646564207965742c2063616e6e6f74206260008201527f65206a756467656420617420746865206d6f6d656e7400000000000000000000602082015250565b60006138b26036836129b7565b91506138bd82613856565b604082019050919050565b600060208201905081810360008301526138e1816138a5565b9050919050565b60006138f382612882565b91506138fe83612882565b92508261390e5761390d61355a565b5b828204905092915050565b7f4661696c656420746f2073656e64206d6f6e657920746f206a75646765000000600082015250565b600061394f601d836129b7565b915061395a82613919565b602082019050919050565b6000602082019050818103600083015261397e81613942565b9050919050565b600061399082612882565b915061399b83612882565b9250828210156139ae576139ad613322565b5b828203905092915050565b60006139c482612882565b91507fffffffffffffffffffffffffffffffffffffffffffffffffffffffffffffffff8214156139f7576139f6613322565b5b60018201905091905056fea2646970667358221220071775c3df9bb6a929c0a93a520bc31ee73a1dbbac7c6c1f503a6e55d8e0323964736f6c63430008090033",
  "linkReferences": {},
  "deployedLinkReferences": {}
}